{
  "contractName": "RealEstate",
  "abi": [
    {
      "constant": true,
      "inputs": [],
      "name": "ownerStatus",
      "outputs": [
        {
          "name": "",
          "type": "uint8"
        }
      ],
      "payable": false,
      "stateMutability": "view",
      "type": "function"
    },
    {
      "constant": true,
      "inputs": [
        {
          "name": "",
          "type": "address"
        }
      ],
      "name": "buyerAddressToId",
      "outputs": [
        {
          "name": "",
          "type": "uint256"
        }
      ],
      "payable": false,
      "stateMutability": "view",
      "type": "function"
    },
    {
      "constant": true,
      "inputs": [],
      "name": "owner",
      "outputs": [
        {
          "name": "",
          "type": "address"
        }
      ],
      "payable": false,
      "stateMutability": "view",
      "type": "function"
    },
    {
      "constant": true,
      "inputs": [
        {
          "name": "",
          "type": "uint256"
        }
      ],
      "name": "buyerInfo",
      "outputs": [
        {
          "name": "buyerAddress",
          "type": "address"
        },
        {
          "name": "name",
          "type": "bytes32"
        },
        {
          "name": "age",
          "type": "uint256"
        },
        {
          "name": "contractMonths",
          "type": "uint256"
        }
      ],
      "payable": false,
      "stateMutability": "view",
      "type": "function"
    },
    {
      "constant": true,
      "inputs": [
        {
          "name": "",
          "type": "uint256"
        }
      ],
      "name": "buyers",
      "outputs": [
        {
          "name": "",
          "type": "address"
        }
      ],
      "payable": false,
      "stateMutability": "view",
      "type": "function"
    },
    {
      "inputs": [],
      "payable": false,
      "stateMutability": "nonpayable",
      "type": "constructor"
    },
    {
      "anonymous": false,
      "inputs": [
        {
          "indexed": false,
          "name": "_buyer",
          "type": "address"
        },
        {
          "indexed": false,
          "name": "_id",
          "type": "uint256"
        },
        {
          "indexed": false,
          "name": "_name",
          "type": "bytes32"
        }
      ],
      "name": "LogBuyRealEstate",
      "type": "event"
    },
    {
      "anonymous": false,
      "inputs": [
        {
          "indexed": false,
          "name": "_buyer",
          "type": "address"
        },
        {
          "indexed": false,
          "name": "_id",
          "type": "uint256"
        }
      ],
      "name": "LogPayRent",
      "type": "event"
    },
    {
      "constant": false,
      "inputs": [
        {
          "name": "_id",
          "type": "uint256"
        },
        {
          "name": "_name",
          "type": "bytes32"
        },
        {
          "name": "_age",
          "type": "uint256"
        },
        {
          "name": "_contractMonths",
          "type": "uint256"
        }
      ],
      "name": "buyRealEstate",
      "outputs": [],
      "payable": true,
      "stateMutability": "payable",
      "type": "function"
    },
    {
      "constant": false,
      "inputs": [
        {
          "name": "_id",
          "type": "uint256"
        }
      ],
      "name": "payRent",
      "outputs": [],
      "payable": true,
      "stateMutability": "payable",
      "type": "function"
    },
    {
      "constant": false,
      "inputs": [
        {
          "name": "_id",
          "type": "uint256"
        }
      ],
      "name": "cancelContract",
      "outputs": [],
      "payable": false,
      "stateMutability": "nonpayable",
      "type": "function"
    },
    {
      "constant": false,
      "inputs": [],
      "name": "withdrawMoney",
      "outputs": [],
      "payable": false,
      "stateMutability": "nonpayable",
      "type": "function"
    },
    {
      "constant": true,
      "inputs": [
        {
          "name": "_address",
          "type": "address"
        }
      ],
      "name": "getIdByBuyerAddress",
      "outputs": [
        {
          "name": "",
          "type": "uint256"
        }
      ],
      "payable": false,
      "stateMutability": "view",
      "type": "function"
    },
    {
      "constant": true,
      "inputs": [
        {
          "name": "_id",
          "type": "uint256"
        }
      ],
      "name": "getBuyerInfo",
      "outputs": [
        {
          "name": "",
          "type": "address"
        },
        {
          "name": "",
          "type": "bytes32"
        },
        {
          "name": "",
          "type": "uint256"
        },
        {
          "name": "",
          "type": "uint256"
        }
      ],
      "payable": false,
      "stateMutability": "view",
      "type": "function"
    },
    {
      "constant": true,
      "inputs": [],
      "name": "getAllBuyers",
      "outputs": [
        {
          "name": "",
          "type": "address[10]"
        }
      ],
      "payable": false,
      "stateMutability": "view",
      "type": "function"
    },
    {
      "constant": true,
      "inputs": [
        {
          "name": "_id",
          "type": "uint256"
        }
      ],
      "name": "getRemainMonths",
      "outputs": [
        {
          "name": "",
          "type": "uint256"
        }
      ],
      "payable": false,
      "stateMutability": "view",
      "type": "function"
    }
  ],
  "bytecode": "0x608060405260008060006101000a81548160ff021916908360ff16021790555060008060016101000a81548160ff021916908360ff1602179055506001600060026101000a81548160ff021916908360ff16021790555034801561006257600080fd5b5033600360006101000a81548173ffffffffffffffffffffffffffffffffffffffff021916908373ffffffffffffffffffffffffffffffffffffffff160217905550610df0806100b36000396000f3006080604052600436106100c5576000357c0100000000000000000000000000000000000000000000000000000000900463ffffffff16806328047450146100ca5780633b4a0032146100f75780634596356a146101285780634b4c1bc31461017f5780635a3d3750146101d65780635aee87031461021857806386cba22b146102a25780638da5cb5b146102f557806397d834621461034c578063ac4460021461038d578063d9e8843f146103a4578063e377e966146103c4578063f2aa82181461044e575b600080fd5b3480156100d657600080fd5b506100f5600480360381019080803590602001909291905050506104bb565b005b34801561010357600080fd5b5061010c610503565b604051808260ff1660ff16815260200191505060405180910390f35b34801561013457600080fd5b50610169600480360381019080803573ffffffffffffffffffffffffffffffffffffffff169060200190929190505050610515565b6040518082815260200191505060405180910390f35b34801561018b57600080fd5b506101c0600480360381019080803573ffffffffffffffffffffffffffffffffffffffff16906020019092919050505061052d565b6040518082815260200191505060405180910390f35b6102166004803603810190808035906020019092919080356000191690602001909291908035906020019092919080359060200190929190505050610576565b005b34801561022457600080fd5b50610243600480360381019080803590602001909291905050506107f9565b604051808573ffffffffffffffffffffffffffffffffffffffff1673ffffffffffffffffffffffffffffffffffffffff168152602001846000191660001916815260200183815260200182815260200194505050505060405180910390f35b3480156102ae57600080fd5b506102b76108c8565b6040518082600a60200280838360005b838110156102e25780820151818401526020810190506102c7565b5050505090500191505060405180910390f35b34801561030157600080fd5b5061030a610949565b604051808273ffffffffffffffffffffffffffffffffffffffff1673ffffffffffffffffffffffffffffffffffffffff16815260200191505060405180910390f35b34801561035857600080fd5b506103776004803603810190808035906020019092919050505061096f565b6040518082815260200191505060405180910390f35b34801561039957600080fd5b506103a2610a23565b005b6103c260048036038101908080359060200190929190505050610b32565b005b3480156103d057600080fd5b506103ef60048036038101908080359060200190929190505050610cd9565b604051808573ffffffffffffffffffffffffffffffffffffffff1673ffffffffffffffffffffffffffffffffffffffff168152602001846000191660001916815260200183815260200182815260200194505050505060405180910390f35b34801561045a57600080fd5b5061047960048036038101908080359060200190929190505050610d29565b604051808273ffffffffffffffffffffffffffffffffffffffff1673ffffffffffffffffffffffffffffffffffffffff16815260200191505060405180910390f35b60006001600083815260200190815260200160002060030181905550600060029054906101000a900460ff166000806101000a81548160ff021916908360ff16021790555050565b6000809054906101000a900460ff1681565b60026020528060005260406000206000915090505481565b6000600260008373ffffffffffffffffffffffffffffffffffffffff1673ffffffffffffffffffffffffffffffffffffffff168152602001908152602001600020549050919050565b60008410158015610588575060098411155b151561059357600080fd5b33600485600a811015156105a357fe5b0160006101000a81548173ffffffffffffffffffffffffffffffffffffffff021916908373ffffffffffffffffffffffffffffffffffffffff1602179055506080604051908101604052803373ffffffffffffffffffffffffffffffffffffffff16815260200184600019168152602001838152602001828152506001600086815260200190815260200160002060008201518160000160006101000a81548173ffffffffffffffffffffffffffffffffffffffff021916908373ffffffffffffffffffffffffffffffffffffffff16021790555060208201518160010190600019169055604082015181600201556060820151816003015590505083600260003373ffffffffffffffffffffffffffffffffffffffff1673ffffffffffffffffffffffffffffffffffffffff16815260200190815260200160002081905550600060019054906101000a900460ff1660ff166000809054906101000a900460ff1660ff16141561077857600360009054906101000a900473ffffffffffffffffffffffffffffffffffffffff1673ffffffffffffffffffffffffffffffffffffffff166108fc349081150290604051600060405180830381858888f19350505050158015610776573d6000803e3d6000fd5b505b7f6d3341b58aaae6b5cdd6aaad06dbe295cffd0cd81d2dddf951244c20fc5b9b87338585604051808473ffffffffffffffffffffffffffffffffffffffff1673ffffffffffffffffffffffffffffffffffffffff1681526020018381526020018260001916600019168152602001935050505060405180910390a150505050565b600080600080610807610d5e565b60016000878152602001908152602001600020608060405190810160405290816000820160009054906101000a900473ffffffffffffffffffffffffffffffffffffffff1673ffffffffffffffffffffffffffffffffffffffff1673ffffffffffffffffffffffffffffffffffffffff16815260200160018201546000191660001916815260200160028201548152602001600382015481525050905080600001518160200151826040015183606001519450945094509450509193509193565b6108d0610da0565b6004600a806020026040519081016040528092919082600a801561093f576020028201915b8160009054906101000a900473ffffffffffffffffffffffffffffffffffffffff1673ffffffffffffffffffffffffffffffffffffffff16815260200190600101908083116108f5575b5050505050905090565b600360009054906101000a900473ffffffffffffffffffffffffffffffffffffffff1681565b6000610979610d5e565b60016000848152602001908152602001600020608060405190810160405290816000820160009054906101000a900473ffffffffffffffffffffffffffffffffffffffff1673ffffffffffffffffffffffffffffffffffffffff1673ffffffffffffffffffffffffffffffffffffffff1681526020016001820154600019166000191681526020016002820154815260200160038201548152505090508060600151915050919050565b600060019054906101000a900460ff1660ff166000809054906101000a900460ff1660ff16141515610a5457600080fd5b600360009054906101000a900473ffffffffffffffffffffffffffffffffffffffff1673ffffffffffffffffffffffffffffffffffffffff163373ffffffffffffffffffffffffffffffffffffffff16141515610ab057600080fd5b600360009054906101000a900473ffffffffffffffffffffffffffffffffffffffff1673ffffffffffffffffffffffffffffffffffffffff166108fc3073ffffffffffffffffffffffffffffffffffffffff16319081150290604051600060405180830381858888f19350505050158015610b2f573d6000803e3d6000fd5b50565b600034111515610b4157600080fd5b60006001600083815260200190815260200160002060030154111515610b6657600080fd5b600160008281526020019081526020016000206003016000815480929190600190039190505550600060019054906101000a900460ff1660ff166000809054906101000a900460ff1660ff161415610c2257600360009054906101000a900473ffffffffffffffffffffffffffffffffffffffff1673ffffffffffffffffffffffffffffffffffffffff166108fc349081150290604051600060405180830381858888f19350505050158015610c20573d6000803e3d6000fd5b505b600060016000838152602001908152602001600020600301541415610c6b57600060029054906101000a900460ff166000806101000a81548160ff021916908360ff1602179055505b7f75b8abdb9c7a8d9223275176229e73d13e15e0ab96526c37d0d0888a886c74253382604051808373ffffffffffffffffffffffffffffffffffffffff1673ffffffffffffffffffffffffffffffffffffffff1681526020018281526020019250505060405180910390a150565b60016020528060005260406000206000915090508060000160009054906101000a900473ffffffffffffffffffffffffffffffffffffffff16908060010154908060020154908060030154905084565b600481600a81101515610d3857fe5b016000915054906101000a900473ffffffffffffffffffffffffffffffffffffffff1681565b608060405190810160405280600073ffffffffffffffffffffffffffffffffffffffff1681526020016000801916815260200160008152602001600081525090565b61014060405190810160405280600a906020820280388339808201915050905050905600a165627a7a723058206138f2f779546c05a64110e719c698d734e3756270041dee116e3a7fd8dfc06e0029",
  "source": "pragma solidity ^0.4.23;\r\n\r\ncontract RealEstate {\r\n\r\n    //OWNER STATUS CHECK\r\n    //SIMPLE ESCROW FUNCTION\r\n\r\n    uint8 public ownerStatus=0; //This will check whether there is any unpaid deposit.\r\n\r\n    uint8 depositAllPaid = 0; //Then this owner can withdraw roomies monthly rent.\r\n    uint8 depositNotPaid = 1; //If there is any unpaid deposit, owner can't withdraw money from contract.\r\n\r\n\r\n\r\n    struct Buyer {\r\n        address buyerAddress;\r\n        bytes32 name;\r\n        uint age;\r\n        uint contractMonths;\r\n    }\r\n\r\n    mapping (uint => Buyer) public buyerInfo;\r\n\t\tmapping(address => uint) public buyerAddressToId; //this will return builing's id\r\n\r\n    address public owner;\r\n    address[10] public buyers;\r\n\r\n    event LogBuyRealEstate(\r\n        address _buyer,\r\n        uint _id,\r\n\t\tbytes32 _name\r\n    );\r\n\r\n    event LogPayRent(\r\n\r\n        address _buyer,\r\n        uint _id\r\n\r\n        );\r\n\r\n    constructor() public {\r\n        owner = msg.sender;\r\n    }\r\n\r\n    //Roomie will pay with this for their very first payment : deposit + first monthly rent\r\n\r\n    function buyRealEstate(uint _id, bytes32 _name, uint _age,uint _contractMonths) public payable {\r\n        require(_id >= 0 && _id <= 9);\r\n        buyers[_id] = msg.sender; //Becuase this is not dynamic array. Need to change this to dynamic array for beta ver2\r\n        buyerInfo[_id] = Buyer(msg.sender, _name, _age,_contractMonths);\r\n\t\t\t\tbuyerAddressToId[msg.sender]=_id;\r\n        if(ownerStatus==depositAllPaid){\r\n            owner.transfer(msg.value); // If it is not it will be stored in contract balance\r\n        }\r\n\r\n        emit LogBuyRealEstate(msg.sender, _id,_name);\r\n    }\r\n\r\n    function payRent(uint _id) public payable{\r\n        require(msg.value > 0);\r\n        require(buyerInfo[_id].contractMonths > 0);\r\n\r\n        buyerInfo[_id].contractMonths--; //Need to change this to SafeMath for avoiding future problem.\r\n        if(ownerStatus==depositAllPaid){\r\n            owner.transfer(msg.value);\r\n        }\r\n\r\n\r\n        if(buyerInfo[_id].contractMonths==0){\r\n            ownerStatus=depositNotPaid;\r\n        }\r\n\r\n        emit LogPayRent(msg.sender,_id);\r\n    }\r\n\r\n    function cancelContract(uint _id) external {\r\n        //require(buyerInfo[_id].buyerAddress==msg.sender);\r\n        //require(buyerInfo[_id].contractMonths > 0);\r\n\r\n        buyerInfo[_id].contractMonths=0;\r\n        //owner should pay deposit to this person\r\n        ownerStatus=depositNotPaid;\r\n\r\n    }\r\n\r\n    function withdrawMoney() public {\r\n        require(ownerStatus==depositAllPaid);\r\n        require(msg.sender==owner);\r\n\r\n        owner.transfer(address(this).balance);\r\n\r\n\r\n    }\r\n\r\n \t\tfunction getIdByBuyerAddress(address _address) public view returns(uint){\r\n\t\t\treturn buyerAddressToId[_address];\r\n\t\t}\r\n\r\n\r\n\r\n    function getBuyerInfo(uint _id) public view returns (address, bytes32, uint,uint) {\r\n        Buyer memory buyer = buyerInfo[_id];\r\n        return (buyer.buyerAddress, buyer.name, buyer.age,buyer.contractMonths);\r\n    }\r\n\r\n    function getAllBuyers() public view returns (address[10]) {\r\n        return buyers;\r\n    }\r\n\r\n    function getRemainMonths(uint _id) public view returns(uint){\r\n        Buyer memory buyer = buyerInfo[_id];\r\n        return buyer.contractMonths;\r\n    }\r\n}\r\n",
  "sourcePath": "/Users/jung/Desktop/roomie_hja/lol/contracts/RealEstate.sol",
  "compiler": {
    "name": "solc",
    "version": "0.4.24+commit.e67f0147.Emscripten.clang"
  },
  "schemaVersion": "2.0.1",
  "updatedAt": "2018-08-29T18:36:09.510Z"
}